:040000009EEF3EF041
:107D37000100000001370EF66E7D0EF76E000EF89B
:107D47006E00EE0FF010EE05F00900F5CFEEFFE53F
:107D570050E150FAE1000EF86E0001F7EF3EF00037
:107D67000E086E000E076E08BE06D0085019E1080F
:107D77000E075CD8B0120007C005F0010E066E05AD
:107D87002A02D0D8900636052EFCD706508C6E0FE7
:107D9700C001F010C002F0ABEC3FF0074A082AE33D
:107DA700D71200000E086E000E076E08BE06D00838
:107DB7005019E1090E075CD8B0120007C005F001A1
:107DC7000E066E052A02D0D8900636052EFCD70679
:107DD700048C6E0FC001F010C002F0ABEC3FF0074F
:107DE7004A082AE3D71200000E956E000E8C6E9398
:107DF7008E938CF19E81BE1BD0820E0E6EDE0EE836
:107E07002EFED70E2EFCD7132A050E1318D8A40F53
:107E1700D0010E136E0CD0B3EC3EF0ECD729EC3F3B
:107E2700F0E9D7D5EC3EF0E6D75DEC3FF0E3D713AA
:107E370050010AD8B4F0D7030AD8B4F0D7010AD84A
:107E4700B4F0D7070AD8B4F0D7D5D7000E0C6E0018
:107E57000E0B6E000E0A6E070E096E0CBE06D00CD6
:107E67005027E1080E0B5CD8B0120009C005F001DD
:107E77000E066E052A02D0D8900636052EFCD70BC3
:107E8700C007F0010E086E072A02D0D890083607FF
:107E97002EFCD7085006248C6E0FC001F010C002CC
:107EA700F0ABEC3FF00B4A0C2A0906D8A00A06D51E
:107EB700D71200000E0B6E000E0A6E000E0D6E003C
:107EC7000E0C6E000E096E000E086E09BE06D00974
:107ED700503DE1050E085CD8B012000A500C248C06
:107EE7006E08C005F0010E066E000E076E052A0328
:107EF700D0D89006360736052EFBD70F0E0616008C
:107F07000E071606500A2607500B220850000805D0
:107F17006E070E0526010E066E000E076E052A0374
:107F2700D0D89006360736052EFBD7F00E0616007A
:107F37000E071606500C2607500D220FC001F01031
:107F4700C002F0ABEC3FF0084A092ABFD712000184
:107F5700040210D8A408D0820E036EDE0EE82EFEAF
:107F6700D7032EFCD734D0020E01180210D8A40D67
:107F7700D0020E046E040E036EBA0EE82EFED7036F
:107F87002EFCD7042EFAD700D022D0030E011802F8
:107F970010D8A40CD0030E046E080E036E770EE8FB
:107FA7002EFED7032EFCD7042EFAD710D0040E01CD
:107FB700180210D8A40CD0050E046E0F0E036EF134
:107FC7000EE82EFED7032EFCD7042EFAD700F08139
:107FD700BC1200820E036EDE0EE82EFED7032EFCC7
:107FE700D7014A022A050E01180210D8A412000070
:097FF7000E026E010E016E120073
:020000040020DA
:08000000FFFFFFFFFFFFFFFF00
:020000040030CA
:0E00000000091F1EFF8181FF0FC00FE00F409F
:00000001FF
